{
  "contractName": "Election",
  "abi": [
    {
      "anonymous": false,
      "inputs": [
        {
          "indexed": false,
          "internalType": "string",
          "name": "name",
          "type": "string"
        }
      ],
      "name": "addcandidate",
      "type": "event"
    },
    {
      "anonymous": false,
      "inputs": [
        {
          "indexed": false,
          "internalType": "uint256",
          "name": "id",
          "type": "uint256"
        },
        {
          "indexed": false,
          "internalType": "string",
          "name": "name",
          "type": "string"
        },
        {
          "indexed": false,
          "internalType": "uint256",
          "name": "votecount",
          "type": "uint256"
        }
      ],
      "name": "electionupdated",
      "type": "event"
    },
    {
      "constant": true,
      "inputs": [
        {
          "internalType": "uint256",
          "name": "",
          "type": "uint256"
        }
      ],
      "name": "candidates",
      "outputs": [
        {
          "internalType": "uint256",
          "name": "id",
          "type": "uint256"
        },
        {
          "internalType": "string",
          "name": "name",
          "type": "string"
        },
        {
          "internalType": "uint256",
          "name": "votecount",
          "type": "uint256"
        }
      ],
      "payable": false,
      "stateMutability": "view",
      "type": "function"
    },
    {
      "constant": true,
      "inputs": [],
      "name": "candidatesCount",
      "outputs": [
        {
          "internalType": "uint256",
          "name": "",
          "type": "uint256"
        }
      ],
      "payable": false,
      "stateMutability": "view",
      "type": "function"
    },
    {
      "constant": true,
      "inputs": [
        {
          "internalType": "address",
          "name": "",
          "type": "address"
        }
      ],
      "name": "votedornot",
      "outputs": [
        {
          "internalType": "bool",
          "name": "",
          "type": "bool"
        }
      ],
      "payable": false,
      "stateMutability": "view",
      "type": "function"
    },
    {
      "constant": false,
      "inputs": [
        {
          "internalType": "string",
          "name": "name",
          "type": "string"
        }
      ],
      "name": "addCandidate",
      "outputs": [],
      "payable": false,
      "stateMutability": "nonpayable",
      "type": "function"
    },
    {
      "constant": false,
      "inputs": [
        {
          "internalType": "uint256",
          "name": "_candidateId",
          "type": "uint256"
        }
      ],
      "name": "Vote",
      "outputs": [],
      "payable": false,
      "stateMutability": "nonpayable",
      "type": "function"
    }
  ],
  "bytecode": "0x608060405234801561001057600080fd5b5061084c806100206000396000f3fe608060405234801561001057600080fd5b50600436106100575760003560e01c80631bc570221461005c5780632d35a8a2146100b85780633477ee2e146100d6578063462e91ec1461018b578063dcd6a5cd14610246575b600080fd5b61009e6004803603602081101561007257600080fd5b81019080803573ffffffffffffffffffffffffffffffffffffffff169060200190929190505050610274565b604051808215151515815260200191505060405180910390f35b6100c0610294565b6040518082815260200191505060405180910390f35b610102600480360360208110156100ec57600080fd5b810190808035906020019092919050505061029a565b6040518084815260200180602001838152602001828103825284818151815260200191508051906020019080838360005b8381101561014e578082015181840152602081019050610133565b50505050905090810190601f16801561017b5780820380516001836020036101000a031916815260200191505b5094505050505060405180910390f35b610244600480360360208110156101a157600080fd5b81019080803590602001906401000000008111156101be57600080fd5b8201836020820111156101d057600080fd5b803590602001918460018302840111640100000000831117156101f257600080fd5b91908080601f016020809104026020016040519081016040528093929190818152602001838380828437600081840152601f19601f82011690508083019250505050505050919291929050505061035c565b005b6102726004803603602081101561025c57600080fd5b81019080803590602001909291905050506104a5565b005b60026020528060005260406000206000915054906101000a900460ff1681565b60005481565b6001602052806000526040600020600091509050806000015490806001018054600181600116156101000203166002900480601f01602080910402602001604051908101604052809291908181526020018280546001816001161561010002031660029004801561034c5780601f106103215761010080835404028352916020019161034c565b820191906000526020600020905b81548152906001019060200180831161032f57829003601f168201915b5050505050908060020154905083565b600080815480929190600101919050555060405180606001604052806000548152602001828152602001600081525060016000805481526020019081526020016000206000820151816000015560208201518160010190805190602001906103c5929190610772565b50604082015181600201559050507f8305abd9a2aefcfb7b426d999ed79e3094e1b489d4acdd65fc5d078203ba67d0600160008054815260200190815260200160002060010160405180806020018281038252838181546001816001161561010002031660029004815260200191508054600181600116156101000203166002900480156104945780601f1061046957610100808354040283529160200191610494565b820191906000526020600020905b81548152906001019060200180831161047757829003601f168201915b50509250505060405180910390a150565b600260003373ffffffffffffffffffffffffffffffffffffffff1673ffffffffffffffffffffffffffffffffffffffff16815260200190815260200160002060009054906101000a900460ff1615610565576040517f08c379a00000000000000000000000000000000000000000000000000000000081526004018080602001828103825260128152602001807f6b616d752074656c6168206d656d696c6968000000000000000000000000000081525060200191505060405180910390fd5b6000600160008381526020019081526020016000206000015411801561058d57506000548111155b6105ff576040517f08c379a00000000000000000000000000000000000000000000000000000000081526004018080602001828103825260128152602001807f696420746964616b20646974656d756b616e000000000000000000000000000081525060200191505060405180910390fd5b6001806000838152602001908152602001600020600201600082825401925050819055506001600260003373ffffffffffffffffffffffffffffffffffffffff1673ffffffffffffffffffffffffffffffffffffffff16815260200190815260200160002060006101000a81548160ff0219169083151502179055507f3c841f91385f410e6f12269c9a0c0eb656e360f1e2d6f91144cfd51a10a2a31881600160008481526020019081526020016000206001016001600085815260200190815260200160002060020154604051808481526020018060200183815260200182810382528481815460018160011615610100020316600290048152602001915080546001816001161561010002031660029004801561075f5780601f106107345761010080835404028352916020019161075f565b820191906000526020600020905b81548152906001019060200180831161074257829003601f168201915b505094505050505060405180910390a150565b828054600181600116156101000203166002900490600052602060002090601f016020900481019282601f106107b357805160ff19168380011785556107e1565b828001600101855582156107e1579182015b828111156107e05782518255916020019190600101906107c5565b5b5090506107ee91906107f2565b5090565b61081491905b808211156108105760008160009055506001016107f8565b5090565b9056fea265627a7a723158203f0e58f2a24327066354c69f78b023313b12886e139b7ed8783d6517d11b87ff64736f6c63430005100032",
  "source": "// SPDX-License-Identifier: MIT\npragma solidity >=0.4.22 <0.9.0;\n\ncontract Election {\n    struct Candidate {\n        uint256 id;\n        string name;\n        uint256 votecount;\n    }\n    uint256 public candidatesCount;\n    mapping(uint256 => Candidate) public candidates;\n    mapping(address => bool) public votedornot;\n\n    event electionupdated(uint256 id, string name, uint256 votecount);\n    event addcandidate(string name);\n\n    // constructor() public {\n    //     addCandidate(\"joko widodo\");\n    //     addCandidate(\"prabowo subianto\");\n    // }\n\n    function addCandidate(string memory name) public {\n        candidatesCount++;\n        candidates[candidatesCount] = Candidate(candidatesCount, name, 0);\n\n        emit addcandidate(candidates[candidatesCount].name);\n    }\n\n    function Vote(uint256 _candidateId) public {\n        //the person has not voted again\n        require(!votedornot[msg.sender], \"kamu telah memilih\");\n        //the id that the person has input is available\n        require(\n            candidates[_candidateId].id > 0 && _candidateId <= candidatesCount,\n            \"id tidak ditemukan\"\n        );\n        //pemilih bertambah\n        candidates[_candidateId].votecount += 1;\n        //bool true\n        votedornot[msg.sender] = true;\n        emit electionupdated(\n            _candidateId,\n            candidates[_candidateId].name,\n            candidates[_candidateId].votecount\n        );\n    }\n}\n",
  "sourcePath": "/home/zakie/project-sr/election-ku/contracts/Election.sol",
  "compiler": {
    "name": "solc",
    "version": "0.5.16+commit.9c3226ce.Emscripten.clang"
  },
  "schemaVersion": "3.3.3",
  "updatedAt": "2021-03-22T09:41:30.458Z",
  "networkType": "ethereum",
  "devdoc": {
    "methods": {}
  },
  "userdoc": {
    "methods": {}
  }
}